{
  "_format": "hh-sol-artifact-1",
  "contractName": "MarketHub",
  "sourceName": "contracts/MarketHub.sol",
  "abi": [
    {
      "inputs": [
        {
          "internalType": "address",
          "name": "_mockMailbox",
          "type": "address"
        }
      ],
      "stateMutability": "nonpayable",
      "type": "constructor"
    },
    {
      "anonymous": false,
      "inputs": [
        {
          "indexed": true,
          "internalType": "address",
          "name": "account",
          "type": "address"
        },
        {
          "indexed": true,
          "internalType": "address",
          "name": "operator",
          "type": "address"
        },
        {
          "indexed": false,
          "internalType": "bool",
          "name": "approved",
          "type": "bool"
        }
      ],
      "name": "ApprovalForAll",
      "type": "event"
    },
    {
      "anonymous": false,
      "inputs": [
        {
          "indexed": true,
          "internalType": "address",
          "name": "operator",
          "type": "address"
        },
        {
          "indexed": true,
          "internalType": "address",
          "name": "from",
          "type": "address"
        },
        {
          "indexed": true,
          "internalType": "address",
          "name": "to",
          "type": "address"
        },
        {
          "indexed": false,
          "internalType": "uint256[]",
          "name": "ids",
          "type": "uint256[]"
        },
        {
          "indexed": false,
          "internalType": "uint256[]",
          "name": "values",
          "type": "uint256[]"
        }
      ],
      "name": "TransferBatch",
      "type": "event"
    },
    {
      "anonymous": false,
      "inputs": [
        {
          "indexed": true,
          "internalType": "address",
          "name": "operator",
          "type": "address"
        },
        {
          "indexed": true,
          "internalType": "address",
          "name": "from",
          "type": "address"
        },
        {
          "indexed": true,
          "internalType": "address",
          "name": "to",
          "type": "address"
        },
        {
          "indexed": false,
          "internalType": "uint256",
          "name": "id",
          "type": "uint256"
        },
        {
          "indexed": false,
          "internalType": "uint256",
          "name": "value",
          "type": "uint256"
        }
      ],
      "name": "TransferSingle",
      "type": "event"
    },
    {
      "anonymous": false,
      "inputs": [
        {
          "indexed": false,
          "internalType": "string",
          "name": "value",
          "type": "string"
        },
        {
          "indexed": true,
          "internalType": "uint256",
          "name": "id",
          "type": "uint256"
        }
      ],
      "name": "URI",
      "type": "event"
    },
    {
      "inputs": [
        {
          "internalType": "address",
          "name": "account",
          "type": "address"
        },
        {
          "internalType": "uint256",
          "name": "id",
          "type": "uint256"
        }
      ],
      "name": "balanceOf",
      "outputs": [
        {
          "internalType": "uint256",
          "name": "",
          "type": "uint256"
        }
      ],
      "stateMutability": "view",
      "type": "function"
    },
    {
      "inputs": [
        {
          "internalType": "address[]",
          "name": "accounts",
          "type": "address[]"
        },
        {
          "internalType": "uint256[]",
          "name": "ids",
          "type": "uint256[]"
        }
      ],
      "name": "balanceOfBatch",
      "outputs": [
        {
          "internalType": "uint256[]",
          "name": "",
          "type": "uint256[]"
        }
      ],
      "stateMutability": "view",
      "type": "function"
    },
    {
      "inputs": [
        {
          "internalType": "uint32",
          "name": "_origin",
          "type": "uint32"
        },
        {
          "internalType": "bytes32",
          "name": "_sender",
          "type": "bytes32"
        },
        {
          "internalType": "bytes",
          "name": "_message",
          "type": "bytes"
        }
      ],
      "name": "handleMessage",
      "outputs": [],
      "stateMutability": "nonpayable",
      "type": "function"
    },
    {
      "inputs": [
        {
          "internalType": "address",
          "name": "account",
          "type": "address"
        },
        {
          "internalType": "address",
          "name": "operator",
          "type": "address"
        }
      ],
      "name": "isApprovedForAll",
      "outputs": [
        {
          "internalType": "bool",
          "name": "",
          "type": "bool"
        }
      ],
      "stateMutability": "view",
      "type": "function"
    },
    {
      "inputs": [],
      "name": "mockMailbox",
      "outputs": [
        {
          "internalType": "contract MockMailbox",
          "name": "",
          "type": "address"
        }
      ],
      "stateMutability": "view",
      "type": "function"
    },
    {
      "inputs": [
        {
          "internalType": "uint256",
          "name": "",
          "type": "uint256"
        },
        {
          "internalType": "address",
          "name": "",
          "type": "address"
        }
      ],
      "name": "orders",
      "outputs": [
        {
          "internalType": "address",
          "name": "user",
          "type": "address"
        },
        {
          "internalType": "uint256",
          "name": "price",
          "type": "uint256"
        },
        {
          "internalType": "uint256",
          "name": "amount",
          "type": "uint256"
        },
        {
          "internalType": "bool",
          "name": "isBuy",
          "type": "bool"
        }
      ],
      "stateMutability": "view",
      "type": "function"
    },
    {
      "inputs": [
        {
          "internalType": "uint256",
          "name": "marketId",
          "type": "uint256"
        },
        {
          "internalType": "uint256",
          "name": "price",
          "type": "uint256"
        },
        {
          "internalType": "uint256",
          "name": "amount",
          "type": "uint256"
        },
        {
          "internalType": "bool",
          "name": "isBuy",
          "type": "bool"
        }
      ],
      "name": "placeOrder",
      "outputs": [],
      "stateMutability": "nonpayable",
      "type": "function"
    },
    {
      "inputs": [
        {
          "internalType": "address",
          "name": "from",
          "type": "address"
        },
        {
          "internalType": "address",
          "name": "to",
          "type": "address"
        },
        {
          "internalType": "uint256[]",
          "name": "ids",
          "type": "uint256[]"
        },
        {
          "internalType": "uint256[]",
          "name": "amounts",
          "type": "uint256[]"
        },
        {
          "internalType": "bytes",
          "name": "data",
          "type": "bytes"
        }
      ],
      "name": "safeBatchTransferFrom",
      "outputs": [],
      "stateMutability": "nonpayable",
      "type": "function"
    },
    {
      "inputs": [
        {
          "internalType": "address",
          "name": "from",
          "type": "address"
        },
        {
          "internalType": "address",
          "name": "to",
          "type": "address"
        },
        {
          "internalType": "uint256",
          "name": "id",
          "type": "uint256"
        },
        {
          "internalType": "uint256",
          "name": "amount",
          "type": "uint256"
        },
        {
          "internalType": "bytes",
          "name": "data",
          "type": "bytes"
        }
      ],
      "name": "safeTransferFrom",
      "outputs": [],
      "stateMutability": "nonpayable",
      "type": "function"
    },
    {
      "inputs": [
        {
          "internalType": "address",
          "name": "operator",
          "type": "address"
        },
        {
          "internalType": "bool",
          "name": "approved",
          "type": "bool"
        }
      ],
      "name": "setApprovalForAll",
      "outputs": [],
      "stateMutability": "nonpayable",
      "type": "function"
    },
    {
      "inputs": [
        {
          "internalType": "bytes4",
          "name": "interfaceId",
          "type": "bytes4"
        }
      ],
      "name": "supportsInterface",
      "outputs": [
        {
          "internalType": "bool",
          "name": "",
          "type": "bool"
        }
      ],
      "stateMutability": "view",
      "type": "function"
    },
    {
      "inputs": [
        {
          "internalType": "uint256",
          "name": "",
          "type": "uint256"
        }
      ],
      "name": "uri",
      "outputs": [
        {
          "internalType": "string",
          "name": "",
          "type": "string"
        }
      ],
      "stateMutability": "view",
      "type": "function"
    }
  ],
  "bytecode": "0x60806040523480156200001157600080fd5b5060405162002fc238038062002fc2833981810160405281019062000037919062000120565b604051806020016040528060008152506200005881620000a160201b60201c565b5080600460006101000a81548173ffffffffffffffffffffffffffffffffffffffff021916908373ffffffffffffffffffffffffffffffffffffffff16021790555050620004b3565b8060029081620000b29190620003cc565b5050565b600080fd5b600073ffffffffffffffffffffffffffffffffffffffff82169050919050565b6000620000e882620000bb565b9050919050565b620000fa81620000db565b81146200010657600080fd5b50565b6000815190506200011a81620000ef565b92915050565b600060208284031215620001395762000138620000b6565b5b6000620001498482850162000109565b91505092915050565b600081519050919050565b7f4e487b7100000000000000000000000000000000000000000000000000000000600052604160045260246000fd5b7f4e487b7100000000000000000000000000000000000000000000000000000000600052602260045260246000fd5b60006002820490506001821680620001d457607f821691505b602082108103620001ea57620001e96200018c565b5b50919050565b60008190508160005260206000209050919050565b60006020601f8301049050919050565b600082821b905092915050565b600060088302620002547fffffffffffffffffffffffffffffffffffffffffffffffffffffffffffffffff8262000215565b62000260868362000215565b95508019841693508086168417925050509392505050565b6000819050919050565b6000819050919050565b6000620002ad620002a7620002a18462000278565b62000282565b62000278565b9050919050565b6000819050919050565b620002c9836200028c565b620002e1620002d882620002b4565b84845462000222565b825550505050565b600090565b620002f8620002e9565b62000305818484620002be565b505050565b5b818110156200032d5762000321600082620002ee565b6001810190506200030b565b5050565b601f8211156200037c576200034681620001f0565b620003518462000205565b8101602085101562000361578190505b62000379620003708562000205565b8301826200030a565b50505b505050565b600082821c905092915050565b6000620003a16000198460080262000381565b1980831691505092915050565b6000620003bc83836200038e565b9150826002028217905092915050565b620003d78262000152565b67ffffffffffffffff811115620003f357620003f26200015d565b5b620003ff8254620001bb565b6200040c82828562000331565b600060209050601f8311600181146200044457600084156200042f578287015190505b6200043b8582620003ae565b865550620004ab565b601f1984166200045486620001f0565b60005b828110156200047e5784890151825560018201915060208501945060208101905062000457565b868310156200049e57848901516200049a601f8916826200038e565b8355505b6001600288020188555050505b505050505050565b612aff80620004c36000396000f3fe608060405234801561001057600080fd5b50600436106100b35760003560e01c80637eedad3e116100715780637eedad3e146101c7578063872899e3146101e3578063a22cb46514610201578063e985e9c51461021d578063f242432a1461024d578063fc09784b14610269576100b3565b8062fdd58e146100b857806301ffc9a7146100e85780630e89341c146101185780632eb2c2d6146101485780634e1273f4146101645780636caddb0414610194575b600080fd5b6100d260048036038101906100cd9190611728565b610285565b6040516100df9190611777565b60405180910390f35b61010260048036038101906100fd91906117ea565b61034d565b60405161010f9190611832565b60405180910390f35b610132600480360381019061012d919061184d565b61042f565b60405161013f919061190a565b60405180910390f35b610162600480360381019061015d9190611b29565b6104c3565b005b61017e60048036038101906101799190611cbb565b610564565b60405161018b9190611df1565b60405180910390f35b6101ae60048036038101906101a99190611e13565b610677565b6040516101be9493929190611e62565b60405180910390f35b6101e160048036038101906101dc9190611ed3565b6106e1565b005b6101eb6107ee565b6040516101f89190611f99565b60405180910390f35b61021b60048036038101906102169190611fb4565b610814565b005b61023760048036038101906102329190611ff4565b61082a565b6040516102449190611832565b60405180910390f35b61026760048036038101906102629190612034565b6108be565b005b610283600480360381019061027e919061213d565b61095f565b005b60008073ffffffffffffffffffffffffffffffffffffffff168373ffffffffffffffffffffffffffffffffffffffff16036102f5576040517f08c379a00000000000000000000000000000000000000000000000000000000081526004016102ec9061221e565b60405180910390fd5b60008083815260200190815260200160002060008473ffffffffffffffffffffffffffffffffffffffff1673ffffffffffffffffffffffffffffffffffffffff16815260200190815260200160002054905092915050565b60007fd9b67a26000000000000000000000000000000000000000000000000000000007bffffffffffffffffffffffffffffffffffffffffffffffffffffffff1916827bffffffffffffffffffffffffffffffffffffffffffffffffffffffff1916148061041857507f0e89341c000000000000000000000000000000000000000000000000000000007bffffffffffffffffffffffffffffffffffffffffffffffffffffffff1916827bffffffffffffffffffffffffffffffffffffffffffffffffffffffff1916145b80610428575061042782610a91565b5b9050919050565b60606002805461043e9061226d565b80601f016020809104026020016040519081016040528092919081815260200182805461046a9061226d565b80156104b75780601f1061048c576101008083540402835291602001916104b7565b820191906000526020600020905b81548152906001019060200180831161049a57829003601f168201915b50505050509050919050565b6104cb610afb565b73ffffffffffffffffffffffffffffffffffffffff168573ffffffffffffffffffffffffffffffffffffffff16148061051157506105108561050b610afb565b61082a565b5b610550576040517f08c379a000000000000000000000000000000000000000000000000000000000815260040161054790612310565b60405180910390fd5b61055d8585858585610b03565b5050505050565b606081518351146105aa576040517f08c379a00000000000000000000000000000000000000000000000000000000081526004016105a1906123a2565b60405180910390fd5b6000835167ffffffffffffffff8111156105c7576105c6611931565b5b6040519080825280602002602001820160405280156105f55781602001602082028036833780820191505090505b50905060005b845181101561066c5761064285828151811061061a576106196123c2565b5b6020026020010151858381518110610635576106346123c2565b5b6020026020010151610285565b828281518110610655576106546123c2565b5b6020026020010181815250508060010190506105fb565b508091505092915050565b6003602052816000526040600020602052806000526040600020600091509150508060000160009054906101000a900473ffffffffffffffffffffffffffffffffffffffff16908060010154908060020154908060030160009054906101000a900460ff16905084565b60405180608001604052803373ffffffffffffffffffffffffffffffffffffffff1681526020018481526020018381526020018215158152506003600086815260200190815260200160002060003373ffffffffffffffffffffffffffffffffffffffff1673ffffffffffffffffffffffffffffffffffffffff16815260200190815260200160002060008201518160000160006101000a81548173ffffffffffffffffffffffffffffffffffffffff021916908373ffffffffffffffffffffffffffffffffffffffff160217905550602082015181600101556040820151816002015560608201518160030160006101000a81548160ff02191690831515021790555090505050505050565b600460009054906101000a900473ffffffffffffffffffffffffffffffffffffffff1681565b61082661081f610afb565b8383610e1e565b5050565b6000600160008473ffffffffffffffffffffffffffffffffffffffff1673ffffffffffffffffffffffffffffffffffffffff16815260200190815260200160002060008373ffffffffffffffffffffffffffffffffffffffff1673ffffffffffffffffffffffffffffffffffffffff16815260200190815260200160002060009054906101000a900460ff16905092915050565b6108c6610afb565b73ffffffffffffffffffffffffffffffffffffffff168573ffffffffffffffffffffffffffffffffffffffff16148061090c575061090b85610906610afb565b61082a565b5b61094b576040517f08c379a000000000000000000000000000000000000000000000000000000000815260040161094290612310565b60405180910390fd5b6109588585858585610f8a565b5050505050565b60008060008084806020019051810190610979919061241b565b935093509350935060405180608001604052803373ffffffffffffffffffffffffffffffffffffffff1681526020018481526020018381526020018215158152506003600086815260200190815260200160002060003373ffffffffffffffffffffffffffffffffffffffff1673ffffffffffffffffffffffffffffffffffffffff16815260200190815260200160002060008201518160000160006101000a81548173ffffffffffffffffffffffffffffffffffffffff021916908373ffffffffffffffffffffffffffffffffffffffff160217905550602082015181600101556040820151816002015560608201518160030160006101000a81548160ff02191690831515021790555090505050505050505050565b60007f01ffc9a7000000000000000000000000000000000000000000000000000000007bffffffffffffffffffffffffffffffffffffffffffffffffffffffff1916827bffffffffffffffffffffffffffffffffffffffffffffffffffffffff1916149050919050565b600033905090565b8151835114610b47576040517f08c379a0000000000000000000000000000000000000000000000000000000008152600401610b3e906124f4565b60405180910390fd5b600073ffffffffffffffffffffffffffffffffffffffff168473ffffffffffffffffffffffffffffffffffffffff1603610bb6576040517f08c379a0000000000000000000000000000000000000000000000000000000008152600401610bad90612586565b60405180910390fd5b6000610bc0610afb565b9050610bd0818787878787611225565b60005b8451811015610d7b576000858281518110610bf157610bf06123c2565b5b602002602001015190506000858381518110610c1057610c0f6123c2565b5b60200260200101519050600080600084815260200190815260200160002060008b73ffffffffffffffffffffffffffffffffffffffff1673ffffffffffffffffffffffffffffffffffffffff16815260200190815260200160002054905081811015610cb1576040517f08c379a0000000000000000000000000000000000000000000000000000000008152600401610ca890612618565b60405180910390fd5b81810360008085815260200190815260200160002060008c73ffffffffffffffffffffffffffffffffffffffff1673ffffffffffffffffffffffffffffffffffffffff168152602001908152602001600020819055508160008085815260200190815260200160002060008b73ffffffffffffffffffffffffffffffffffffffff1673ffffffffffffffffffffffffffffffffffffffff1681526020019081526020016000206000828254610d669190612667565b92505081905550505050806001019050610bd3565b508473ffffffffffffffffffffffffffffffffffffffff168673ffffffffffffffffffffffffffffffffffffffff168273ffffffffffffffffffffffffffffffffffffffff167f4a39dc06d4c0dbc64b70af90fd698a233a518aa5d07e595d983b8c0526c8f7fb8787604051610df292919061269b565b60405180910390a4610e0881878787878761122d565b610e16818787878787611235565b505050505050565b8173ffffffffffffffffffffffffffffffffffffffff168373ffffffffffffffffffffffffffffffffffffffff1603610e8c576040517f08c379a0000000000000000000000000000000000000000000000000000000008152600401610e8390612744565b60405180910390fd5b80600160008573ffffffffffffffffffffffffffffffffffffffff1673ffffffffffffffffffffffffffffffffffffffff16815260200190815260200160002060008473ffffffffffffffffffffffffffffffffffffffff1673ffffffffffffffffffffffffffffffffffffffff16815260200190815260200160002060006101000a81548160ff0219169083151502179055508173ffffffffffffffffffffffffffffffffffffffff168373ffffffffffffffffffffffffffffffffffffffff167f17307eab39ab6107e8899845ad3d59bd9653f200f220920489ca2b5937696c3183604051610f7d9190611832565b60405180910390a3505050565b600073ffffffffffffffffffffffffffffffffffffffff168473ffffffffffffffffffffffffffffffffffffffff1603610ff9576040517f08c379a0000000000000000000000000000000000000000000000000000000008152600401610ff090612586565b60405180910390fd5b6000611003610afb565b905060006110108561140c565b9050600061101d8561140c565b905061102d838989858589611225565b600080600088815260200190815260200160002060008a73ffffffffffffffffffffffffffffffffffffffff1673ffffffffffffffffffffffffffffffffffffffff168152602001908152602001600020549050858110156110c4576040517f08c379a00000000000000000000000000000000000000000000000000000000081526004016110bb90612618565b60405180910390fd5b85810360008089815260200190815260200160002060008b73ffffffffffffffffffffffffffffffffffffffff1673ffffffffffffffffffffffffffffffffffffffff168152602001908152602001600020819055508560008089815260200190815260200160002060008a73ffffffffffffffffffffffffffffffffffffffff1673ffffffffffffffffffffffffffffffffffffffff16815260200190815260200160002060008282546111799190612667565b925050819055508773ffffffffffffffffffffffffffffffffffffffff168973ffffffffffffffffffffffffffffffffffffffff168573ffffffffffffffffffffffffffffffffffffffff167fc3d58168c5ae7397731d063d5bbf3d657854427343f4c083240f7aacaa2d0f628a8a6040516111f6929190612764565b60405180910390a461120c848a8a86868a61122d565b61121a848a8a8a8a8a611486565b505050505050505050565b505050505050565b505050505050565b6112548473ffffffffffffffffffffffffffffffffffffffff1661165d565b15611404578373ffffffffffffffffffffffffffffffffffffffff1663bc197c8187878686866040518663ffffffff1660e01b815260040161129a9594939291906127e2565b6020604051808303816000875af19250505080156112d657506040513d601f19601f820116820180604052508101906112d3919061285f565b60015b61137b576112e2612899565b806308c379a00361133e57506112f66128bb565b806113015750611340565b806040517f08c379a0000000000000000000000000000000000000000000000000000000008152600401611335919061190a565b60405180910390fd5b505b6040517f08c379a0000000000000000000000000000000000000000000000000000000008152600401611372906129bd565b60405180910390fd5b63bc197c8160e01b7bffffffffffffffffffffffffffffffffffffffffffffffffffffffff1916817bffffffffffffffffffffffffffffffffffffffffffffffffffffffff191614611402576040517f08c379a00000000000000000000000000000000000000000000000000000000081526004016113f990612a4f565b60405180910390fd5b505b505050505050565b60606000600167ffffffffffffffff81111561142b5761142a611931565b5b6040519080825280602002602001820160405280156114595781602001602082028036833780820191505090505b5090508281600081518110611471576114706123c2565b5b60200260200101818152505080915050919050565b6114a58473ffffffffffffffffffffffffffffffffffffffff1661165d565b15611655578373ffffffffffffffffffffffffffffffffffffffff1663f23a6e6187878686866040518663ffffffff1660e01b81526004016114eb959493929190612a6f565b6020604051808303816000875af192505050801561152757506040513d601f19601f82011682018060405250810190611524919061285f565b60015b6115cc57611533612899565b806308c379a00361158f57506115476128bb565b806115525750611591565b806040517f08c379a0000000000000000000000000000000000000000000000000000000008152600401611586919061190a565b60405180910390fd5b505b6040517f08c379a00000000000000000000000000000000000000000000000000000000081526004016115c3906129bd565b60405180910390fd5b63f23a6e6160e01b7bffffffffffffffffffffffffffffffffffffffffffffffffffffffff1916817bffffffffffffffffffffffffffffffffffffffffffffffffffffffff191614611653576040517f08c379a000000000000000000000000000000000000000000000000000000000815260040161164a90612a4f565b60405180910390fd5b505b505050505050565b6000808273ffffffffffffffffffffffffffffffffffffffff163b119050919050565b6000604051905090565b600080fd5b600080fd5b600073ffffffffffffffffffffffffffffffffffffffff82169050919050565b60006116bf82611694565b9050919050565b6116cf816116b4565b81146116da57600080fd5b50565b6000813590506116ec816116c6565b92915050565b6000819050919050565b611705816116f2565b811461171057600080fd5b50565b600081359050611722816116fc565b92915050565b6000806040838503121561173f5761173e61168a565b5b600061174d858286016116dd565b925050602061175e85828601611713565b9150509250929050565b611771816116f2565b82525050565b600060208201905061178c6000830184611768565b92915050565b60007fffffffff0000000000000000000000000000000000000000000000000000000082169050919050565b6117c781611792565b81146117d257600080fd5b50565b6000813590506117e4816117be565b92915050565b600060208284031215611800576117ff61168a565b5b600061180e848285016117d5565b91505092915050565b60008115159050919050565b61182c81611817565b82525050565b60006020820190506118476000830184611823565b92915050565b6000602082840312156118635761186261168a565b5b600061187184828501611713565b91505092915050565b600081519050919050565b600082825260208201905092915050565b60005b838110156118b4578082015181840152602081019050611899565b60008484015250505050565b6000601f19601f8301169050919050565b60006118dc8261187a565b6118e68185611885565b93506118f6818560208601611896565b6118ff816118c0565b840191505092915050565b6000602082019050818103600083015261192481846118d1565b905092915050565b600080fd5b7f4e487b7100000000000000000000000000000000000000000000000000000000600052604160045260246000fd5b611969826118c0565b810181811067ffffffffffffffff8211171561198857611987611931565b5b80604052505050565b600061199b611680565b90506119a78282611960565b919050565b600067ffffffffffffffff8211156119c7576119c6611931565b5b602082029050602081019050919050565b600080fd5b60006119f06119eb846119ac565b611991565b90508083825260208201905060208402830185811115611a1357611a126119d8565b5b835b81811015611a3c5780611a288882611713565b845260208401935050602081019050611a15565b5050509392505050565b600082601f830112611a5b57611a5a61192c565b5b8135611a6b8482602086016119dd565b91505092915050565b600080fd5b600067ffffffffffffffff821115611a9457611a93611931565b5b611a9d826118c0565b9050602081019050919050565b82818337600083830152505050565b6000611acc611ac784611a79565b611991565b905082815260208101848484011115611ae857611ae7611a74565b5b611af3848285611aaa565b509392505050565b600082601f830112611b1057611b0f61192c565b5b8135611b20848260208601611ab9565b91505092915050565b600080600080600060a08688031215611b4557611b4461168a565b5b6000611b53888289016116dd565b9550506020611b64888289016116dd565b945050604086013567ffffffffffffffff811115611b8557611b8461168f565b5b611b9188828901611a46565b935050606086013567ffffffffffffffff811115611bb257611bb161168f565b5b611bbe88828901611a46565b925050608086013567ffffffffffffffff811115611bdf57611bde61168f565b5b611beb88828901611afb565b9150509295509295909350565b600067ffffffffffffffff821115611c1357611c12611931565b5b602082029050602081019050919050565b6000611c37611c3284611bf8565b611991565b90508083825260208201905060208402830185811115611c5a57611c596119d8565b5b835b81811015611c835780611c6f88826116dd565b845260208401935050602081019050611c5c565b5050509392505050565b600082601f830112611ca257611ca161192c565b5b8135611cb2848260208601611c24565b91505092915050565b60008060408385031215611cd257611cd161168a565b5b600083013567ffffffffffffffff811115611cf057611cef61168f565b5b611cfc85828601611c8d565b925050602083013567ffffffffffffffff811115611d1d57611d1c61168f565b5b611d2985828601611a46565b9150509250929050565b600081519050919050565b600082825260208201905092915050565b6000819050602082019050919050565b611d68816116f2565b82525050565b6000611d7a8383611d5f565b60208301905092915050565b6000602082019050919050565b6000611d9e82611d33565b611da88185611d3e565b9350611db383611d4f565b8060005b83811015611de4578151611dcb8882611d6e565b9750611dd683611d86565b925050600181019050611db7565b5085935050505092915050565b60006020820190508181036000830152611e0b8184611d93565b905092915050565b60008060408385031215611e2a57611e2961168a565b5b6000611e3885828601611713565b9250506020611e49858286016116dd565b9150509250929050565b611e5c816116b4565b82525050565b6000608082019050611e776000830187611e53565b611e846020830186611768565b611e916040830185611768565b611e9e6060830184611823565b95945050505050565b611eb081611817565b8114611ebb57600080fd5b50565b600081359050611ecd81611ea7565b92915050565b60008060008060808587031215611eed57611eec61168a565b5b6000611efb87828801611713565b9450506020611f0c87828801611713565b9350506040611f1d87828801611713565b9250506060611f2e87828801611ebe565b91505092959194509250565b6000819050919050565b6000611f5f611f5a611f5584611694565b611f3a565b611694565b9050919050565b6000611f7182611f44565b9050919050565b6000611f8382611f66565b9050919050565b611f9381611f78565b82525050565b6000602082019050611fae6000830184611f8a565b92915050565b60008060408385031215611fcb57611fca61168a565b5b6000611fd9858286016116dd565b9250506020611fea85828601611ebe565b9150509250929050565b6000806040838503121561200b5761200a61168a565b5b6000612019858286016116dd565b925050602061202a858286016116dd565b9150509250929050565b600080600080600060a086880312156120505761204f61168a565b5b600061205e888289016116dd565b955050602061206f888289016116dd565b945050604061208088828901611713565b935050606061209188828901611713565b925050608086013567ffffffffffffffff8111156120b2576120b161168f565b5b6120be88828901611afb565b9150509295509295909350565b600063ffffffff82169050919050565b6120e4816120cb565b81146120ef57600080fd5b50565b600081359050612101816120db565b92915050565b6000819050919050565b61211a81612107565b811461212557600080fd5b50565b60008135905061213781612111565b92915050565b6000806000606084860312156121565761215561168a565b5b6000612164868287016120f2565b935050602061217586828701612128565b925050604084013567ffffffffffffffff8111156121965761219561168f565b5b6121a286828701611afb565b9150509250925092565b7f455243313135353a2061646472657373207a65726f206973206e6f742061207660008201527f616c6964206f776e657200000000000000000000000000000000000000000000602082015250565b6000612208602a83611885565b9150612213826121ac565b604082019050919050565b60006020820190508181036000830152612237816121fb565b9050919050565b7f4e487b7100000000000000000000000000000000000000000000000000000000600052602260045260246000fd5b6000600282049050600182168061228557607f821691505b6020821081036122985761229761223e565b5b50919050565b7f455243313135353a2063616c6c6572206973206e6f7420746f6b656e206f776e60008201527f6572206f7220617070726f766564000000000000000000000000000000000000602082015250565b60006122fa602e83611885565b91506123058261229e565b604082019050919050565b60006020820190508181036000830152612329816122ed565b9050919050565b7f455243313135353a206163636f756e747320616e6420696473206c656e67746860008201527f206d69736d617463680000000000000000000000000000000000000000000000602082015250565b600061238c602983611885565b915061239782612330565b604082019050919050565b600060208201905081810360008301526123bb8161237f565b9050919050565b7f4e487b7100000000000000000000000000000000000000000000000000000000600052603260045260246000fd5b600081519050612400816116fc565b92915050565b60008151905061241581611ea7565b92915050565b600080600080608085870312156124355761243461168a565b5b6000612443878288016123f1565b9450506020612454878288016123f1565b9350506040612465878288016123f1565b925050606061247687828801612406565b91505092959194509250565b7f455243313135353a2069647320616e6420616d6f756e7473206c656e6774682060008201527f6d69736d61746368000000000000000000000000000000000000000000000000602082015250565b60006124de602883611885565b91506124e982612482565b604082019050919050565b6000602082019050818103600083015261250d816124d1565b9050919050565b7f455243313135353a207472616e7366657220746f20746865207a65726f20616460008201527f6472657373000000000000000000000000000000000000000000000000000000602082015250565b6000612570602583611885565b915061257b82612514565b604082019050919050565b6000602082019050818103600083015261259f81612563565b9050919050565b7f455243313135353a20696e73756666696369656e742062616c616e636520666f60008201527f72207472616e7366657200000000000000000000000000000000000000000000602082015250565b6000612602602a83611885565b915061260d826125a6565b604082019050919050565b60006020820190508181036000830152612631816125f5565b9050919050565b7f4e487b7100000000000000000000000000000000000000000000000000000000600052601160045260246000fd5b6000612672826116f2565b915061267d836116f2565b925082820190508082111561269557612694612638565b5b92915050565b600060408201905081810360008301526126b58185611d93565b905081810360208301526126c98184611d93565b90509392505050565b7f455243313135353a2073657474696e6720617070726f76616c2073746174757360008201527f20666f722073656c660000000000000000000000000000000000000000000000602082015250565b600061272e602983611885565b9150612739826126d2565b604082019050919050565b6000602082019050818103600083015261275d81612721565b9050919050565b60006040820190506127796000830185611768565b6127866020830184611768565b9392505050565b600081519050919050565b600082825260208201905092915050565b60006127b48261278d565b6127be8185612798565b93506127ce818560208601611896565b6127d7816118c0565b840191505092915050565b600060a0820190506127f76000830188611e53565b6128046020830187611e53565b81810360408301526128168186611d93565b9050818103606083015261282a8185611d93565b9050818103608083015261283e81846127a9565b90509695505050505050565b600081519050612859816117be565b92915050565b6000602082840312156128755761287461168a565b5b60006128838482850161284a565b91505092915050565b60008160e01c9050919050565b600060033d11156128b85760046000803e6128b560005161288c565b90505b90565b600060443d10612948576128cd611680565b60043d036004823e80513d602482011167ffffffffffffffff821117156128f5575050612948565b808201805167ffffffffffffffff8111156129135750505050612948565b80602083010160043d038501811115612930575050505050612948565b61293f82602001850186611960565b82955050505050505b90565b7f455243313135353a207472616e7366657220746f206e6f6e2d4552433131353560008201527f526563656976657220696d706c656d656e746572000000000000000000000000602082015250565b60006129a7603483611885565b91506129b28261294b565b604082019050919050565b600060208201905081810360008301526129d68161299a565b9050919050565b7f455243313135353a204552433131353552656365697665722072656a6563746560008201527f6420746f6b656e73000000000000000000000000000000000000000000000000602082015250565b6000612a39602883611885565b9150612a44826129dd565b604082019050919050565b60006020820190508181036000830152612a6881612a2c565b9050919050565b600060a082019050612a846000830188611e53565b612a916020830187611e53565b612a9e6040830186611768565b612aab6060830185611768565b8181036080830152612abd81846127a9565b9050969550505050505056fea2646970667358221220f77439f5cd9fc9554b5bac29d416a820c892dc31982fa5d9b84f8bd845829a4364736f6c63430008180033",
  "linkReferences": {},
  "deployedLinkReferences": {}
}